{
  "_format": "hh-sol-artifact-1",
  "contractName": "TaskManager",
  "sourceName": "contracts/TaskManager.sol",
  "abi": [
    {
      "anonymous": false,
      "inputs": [
        {
          "indexed": true,
          "internalType": "uint256",
          "name": "taskId",
          "type": "uint256"
        },
        {
          "indexed": false,
          "internalType": "string",
          "name": "title",
          "type": "string"
        },
        {
          "indexed": false,
          "internalType": "string",
          "name": "description",
          "type": "string"
        },
        {
          "indexed": false,
          "internalType": "address",
          "name": "creator",
          "type": "address"
        }
      ],
      "name": "TaskAdded",
      "type": "event"
    },
    {
      "anonymous": false,
      "inputs": [
        {
          "indexed": true,
          "internalType": "uint256",
          "name": "taskId",
          "type": "uint256"
        }
      ],
      "name": "TaskCompleted",
      "type": "event"
    },
    {
      "anonymous": false,
      "inputs": [
        {
          "indexed": true,
          "internalType": "uint256",
          "name": "taskId",
          "type": "uint256"
        }
      ],
      "name": "TaskDeleted",
      "type": "event"
    },
    {
      "anonymous": false,
      "inputs": [
        {
          "indexed": true,
          "internalType": "uint256",
          "name": "taskId",
          "type": "uint256"
        },
        {
          "indexed": false,
          "internalType": "string",
          "name": "newTitle",
          "type": "string"
        },
        {
          "indexed": false,
          "internalType": "string",
          "name": "newDescription",
          "type": "string"
        }
      ],
      "name": "TaskEdited",
      "type": "event"
    },
    {
      "inputs": [
        {
          "internalType": "string",
          "name": "_title",
          "type": "string"
        },
        {
          "internalType": "string",
          "name": "_description",
          "type": "string"
        }
      ],
      "name": "addTask",
      "outputs": [],
      "stateMutability": "nonpayable",
      "type": "function"
    },
    {
      "inputs": [
        {
          "internalType": "uint256",
          "name": "_taskId",
          "type": "uint256"
        }
      ],
      "name": "deleteTask",
      "outputs": [],
      "stateMutability": "nonpayable",
      "type": "function"
    },
    {
      "inputs": [
        {
          "internalType": "uint256",
          "name": "_taskId",
          "type": "uint256"
        },
        {
          "internalType": "string",
          "name": "_newTitle",
          "type": "string"
        },
        {
          "internalType": "string",
          "name": "_newDescription",
          "type": "string"
        }
      ],
      "name": "editTask",
      "outputs": [],
      "stateMutability": "nonpayable",
      "type": "function"
    },
    {
      "inputs": [],
      "name": "getAllTasks",
      "outputs": [
        {
          "components": [
            {
              "internalType": "uint256",
              "name": "id",
              "type": "uint256"
            },
            {
              "internalType": "string",
              "name": "title",
              "type": "string"
            },
            {
              "internalType": "string",
              "name": "description",
              "type": "string"
            },
            {
              "internalType": "bool",
              "name": "completed",
              "type": "bool"
            },
            {
              "internalType": "address",
              "name": "creator",
              "type": "address"
            }
          ],
          "internalType": "struct TaskManager.Task[]",
          "name": "",
          "type": "tuple[]"
        }
      ],
      "stateMutability": "view",
      "type": "function"
    },
    {
      "inputs": [
        {
          "internalType": "uint256",
          "name": "_taskId",
          "type": "uint256"
        }
      ],
      "name": "getTask",
      "outputs": [
        {
          "components": [
            {
              "internalType": "uint256",
              "name": "id",
              "type": "uint256"
            },
            {
              "internalType": "string",
              "name": "title",
              "type": "string"
            },
            {
              "internalType": "string",
              "name": "description",
              "type": "string"
            },
            {
              "internalType": "bool",
              "name": "completed",
              "type": "bool"
            },
            {
              "internalType": "address",
              "name": "creator",
              "type": "address"
            }
          ],
          "internalType": "struct TaskManager.Task",
          "name": "",
          "type": "tuple"
        }
      ],
      "stateMutability": "view",
      "type": "function"
    },
    {
      "inputs": [
        {
          "internalType": "uint256",
          "name": "_taskId",
          "type": "uint256"
        }
      ],
      "name": "markTaskCompleted",
      "outputs": [],
      "stateMutability": "nonpayable",
      "type": "function"
    }
  ],
  "bytecode": "0x608060405234801561001057600080fd5b50611790806100206000396000f3fe608060405234801561001057600080fd5b50600436106100615760003560e01c80620b2bda146100665780631d65e77e146100825780634103c62e146100b2578063560f3192146100ce578063779900b4146100ea578063b37b100014610108575b600080fd5b610080600480360381019061007b9190610cc9565b610124565b005b61009c60048036038101906100979190610cc9565b610228565b6040516100a99190610e6e565b60405180910390f35b6100cc60048036038101906100c79190610fc5565b610499565b005b6100e860048036038101906100e39190610cc9565b6105c6565b005b6100f2610715565b6040516100ff919061118f565b60405180910390f35b610122600480360381019061011d91906111b1565b610a8d565b005b803373ffffffffffffffffffffffffffffffffffffffff166001600083815260200190815260200160002060030160019054906101000a900473ffffffffffffffffffffffffffffffffffffffff1673ffffffffffffffffffffffffffffffffffffffff16146101c9576040517f08c379a00000000000000000000000000000000000000000000000000000000081526004016101c090611286565b60405180910390fd5b600180600084815260200190815260200160002060030160006101000a81548160ff021916908315150217905550817fc1fa7142cfb933d0855114a3bffde296944c30b727f297c14d0db4d553d3a5c760405160405180910390a25050565b610230610bdb565b600073ffffffffffffffffffffffffffffffffffffffff166001600084815260200190815260200160002060030160019054906101000a900473ffffffffffffffffffffffffffffffffffffffff1673ffffffffffffffffffffffffffffffffffffffff16036102d5576040517f08c379a00000000000000000000000000000000000000000000000000000000081526004016102cc906112f2565b60405180910390fd5b600160008381526020019081526020016000206040518060a00160405290816000820154815260200160018201805461030d90611341565b80601f016020809104026020016040519081016040528092919081815260200182805461033990611341565b80156103865780601f1061035b57610100808354040283529160200191610386565b820191906000526020600020905b81548152906001019060200180831161036957829003601f168201915b5050505050815260200160028201805461039f90611341565b80601f01602080910402602001604051908101604052809291908181526020018280546103cb90611341565b80156104185780601f106103ed57610100808354040283529160200191610418565b820191906000526020600020905b8154815290600101906020018083116103fb57829003601f168201915b505050505081526020016003820160009054906101000a900460ff161515151581526020016003820160019054906101000a900473ffffffffffffffffffffffffffffffffffffffff1673ffffffffffffffffffffffffffffffffffffffff1673ffffffffffffffffffffffffffffffffffffffff16815250509050919050565b823373ffffffffffffffffffffffffffffffffffffffff166001600083815260200190815260200160002060030160019054906101000a900473ffffffffffffffffffffffffffffffffffffffff1673ffffffffffffffffffffffffffffffffffffffff161461053e576040517f08c379a000000000000000000000000000000000000000000000000000000000815260040161053590611286565b60405180910390fd5b82600160008681526020019081526020016000206001019081610561919061151e565b5081600160008681526020019081526020016000206002019081610585919061151e565b50837fd32b5541f47e247b48c73059d1ec16ad1287856bc52388064e95ba4b0b0d131784846040516105b8929190611629565b60405180910390a250505050565b803373ffffffffffffffffffffffffffffffffffffffff166001600083815260200190815260200160002060030160019054906101000a900473ffffffffffffffffffffffffffffffffffffffff1673ffffffffffffffffffffffffffffffffffffffff161461066b576040517f08c379a000000000000000000000000000000000000000000000000000000000815260040161066290611286565b60405180910390fd5b600160008381526020019081526020016000206000808201600090556001820160006106979190610c22565b6002820160006106a79190610c22565b6003820160006101000a81549060ff02191690556003820160016101000a81549073ffffffffffffffffffffffffffffffffffffffff02191690555050817fd078b251d950cc55c44340be1db732337ef4939a76e1367ee271ad2cb19c46af60405160405180910390a25050565b6060600080600090505b6000548110156107b557600073ffffffffffffffffffffffffffffffffffffffff166001600083815260200190815260200160002060030160019054906101000a900473ffffffffffffffffffffffffffffffffffffffff1673ffffffffffffffffffffffffffffffffffffffff16146107a257818061079e9061168f565b9250505b80806107ad9061168f565b91505061071f565b5060008167ffffffffffffffff8111156107d2576107d1610e9a565b5b60405190808252806020026020018201604052801561080b57816020015b6107f8610bdb565b8152602001906001900390816107f05790505b5090506000805b600054811015610a8357600073ffffffffffffffffffffffffffffffffffffffff166001600083815260200190815260200160002060030160019054906101000a900473ffffffffffffffffffffffffffffffffffffffff1673ffffffffffffffffffffffffffffffffffffffff1614610a7057600160008281526020019081526020016000206040518060a0016040529081600082015481526020016001820180546108be90611341565b80601f01602080910402602001604051908101604052809291908181526020018280546108ea90611341565b80156109375780601f1061090c57610100808354040283529160200191610937565b820191906000526020600020905b81548152906001019060200180831161091a57829003601f168201915b5050505050815260200160028201805461095090611341565b80601f016020809104026020016040519081016040528092919081815260200182805461097c90611341565b80156109c95780601f1061099e576101008083540402835291602001916109c9565b820191906000526020600020905b8154815290600101906020018083116109ac57829003601f168201915b505050505081526020016003820160009054906101000a900460ff161515151581526020016003820160019054906101000a900473ffffffffffffffffffffffffffffffffffffffff1673ffffffffffffffffffffffffffffffffffffffff1673ffffffffffffffffffffffffffffffffffffffff1681525050838381518110610a5657610a556116d7565b5b60200260200101819052508180610a6c9061168f565b9250505b8080610a7b9061168f565b915050610812565b5081935050505090565b6000806000815480929190610aa19061168f565b9190505590506040518060a001604052808281526020018481526020018381526020016000151581526020013373ffffffffffffffffffffffffffffffffffffffff1681525060016000838152602001908152602001600020600082015181600001556020820151816001019081610b19919061151e565b506040820151816002019081610b2f919061151e565b5060608201518160030160006101000a81548160ff02191690831515021790555060808201518160030160016101000a81548173ffffffffffffffffffffffffffffffffffffffff021916908373ffffffffffffffffffffffffffffffffffffffff160217905550905050807f3c9075a5d6407a1e9fce25049b1aca5457711982cad21bba2bc6dca30b598d6c848433604051610bce93929190611715565b60405180910390a2505050565b6040518060a00160405280600081526020016060815260200160608152602001600015158152602001600073ffffffffffffffffffffffffffffffffffffffff1681525090565b508054610c2e90611341565b6000825580601f10610c405750610c5f565b601f016020900490600052602060002090810190610c5e9190610c62565b5b50565b5b80821115610c7b576000816000905550600101610c63565b5090565b6000604051905090565b600080fd5b600080fd5b6000819050919050565b610ca681610c93565b8114610cb157600080fd5b50565b600081359050610cc381610c9d565b92915050565b600060208284031215610cdf57610cde610c89565b5b6000610ced84828501610cb4565b91505092915050565b610cff81610c93565b82525050565b600081519050919050565b600082825260208201905092915050565b60005b83811015610d3f578082015181840152602081019050610d24565b60008484015250505050565b6000601f19601f8301169050919050565b6000610d6782610d05565b610d718185610d10565b9350610d81818560208601610d21565b610d8a81610d4b565b840191505092915050565b60008115159050919050565b610daa81610d95565b82525050565b600073ffffffffffffffffffffffffffffffffffffffff82169050919050565b6000610ddb82610db0565b9050919050565b610deb81610dd0565b82525050565b600060a083016000830151610e096000860182610cf6565b5060208301518482036020860152610e218282610d5c565b91505060408301518482036040860152610e3b8282610d5c565b9150506060830151610e506060860182610da1565b506080830151610e636080860182610de2565b508091505092915050565b60006020820190508181036000830152610e888184610df1565b905092915050565b600080fd5b600080fd5b7f4e487b7100000000000000000000000000000000000000000000000000000000600052604160045260246000fd5b610ed282610d4b565b810181811067ffffffffffffffff82111715610ef157610ef0610e9a565b5b80604052505050565b6000610f04610c7f565b9050610f108282610ec9565b919050565b600067ffffffffffffffff821115610f3057610f2f610e9a565b5b610f3982610d4b565b9050602081019050919050565b82818337600083830152505050565b6000610f68610f6384610f15565b610efa565b905082815260208101848484011115610f8457610f83610e95565b5b610f8f848285610f46565b509392505050565b600082601f830112610fac57610fab610e90565b5b8135610fbc848260208601610f55565b91505092915050565b600080600060608486031215610fde57610fdd610c89565b5b6000610fec86828701610cb4565b935050602084013567ffffffffffffffff81111561100d5761100c610c8e565b5b61101986828701610f97565b925050604084013567ffffffffffffffff81111561103a57611039610c8e565b5b61104686828701610f97565b9150509250925092565b600081519050919050565b600082825260208201905092915050565b6000819050602082019050919050565b600060a0830160008301516110946000860182610cf6565b50602083015184820360208601526110ac8282610d5c565b915050604083015184820360408601526110c68282610d5c565b91505060608301516110db6060860182610da1565b5060808301516110ee6080860182610de2565b508091505092915050565b6000611105838361107c565b905092915050565b6000602082019050919050565b600061112582611050565b61112f818561105b565b9350836020820285016111418561106c565b8060005b8581101561117d578484038952815161115e85826110f9565b94506111698361110d565b925060208a01995050600181019050611145565b50829750879550505050505092915050565b600060208201905081810360008301526111a9818461111a565b905092915050565b600080604083850312156111c8576111c7610c89565b5b600083013567ffffffffffffffff8111156111e6576111e5610c8e565b5b6111f285828601610f97565b925050602083013567ffffffffffffffff81111561121357611212610c8e565b5b61121f85828601610f97565b9150509250929050565b600082825260208201905092915050565b7f4e6f7420746865207461736b206f776e65720000000000000000000000000000600082015250565b6000611270601283611229565b915061127b8261123a565b602082019050919050565b6000602082019050818103600083015261129f81611263565b9050919050565b7f5461736b20646f6573206e6f7420657869737400000000000000000000000000600082015250565b60006112dc601383611229565b91506112e7826112a6565b602082019050919050565b6000602082019050818103600083015261130b816112cf565b9050919050565b7f4e487b7100000000000000000000000000000000000000000000000000000000600052602260045260246000fd5b6000600282049050600182168061135957607f821691505b60208210810361136c5761136b611312565b5b50919050565b60008190508160005260206000209050919050565b60006020601f8301049050919050565b600082821b905092915050565b6000600883026113d47fffffffffffffffffffffffffffffffffffffffffffffffffffffffffffffffff82611397565b6113de8683611397565b95508019841693508086168417925050509392505050565b6000819050919050565b600061141b61141661141184610c93565b6113f6565b610c93565b9050919050565b6000819050919050565b61143583611400565b61144961144182611422565b8484546113a4565b825550505050565b600090565b61145e611451565b61146981848461142c565b505050565b5b8181101561148d57611482600082611456565b60018101905061146f565b5050565b601f8211156114d2576114a381611372565b6114ac84611387565b810160208510156114bb578190505b6114cf6114c785611387565b83018261146e565b50505b505050565b600082821c905092915050565b60006114f5600019846008026114d7565b1980831691505092915050565b600061150e83836114e4565b9150826002028217905092915050565b61152782610d05565b67ffffffffffffffff8111156115405761153f610e9a565b5b61154a8254611341565b611555828285611491565b600060209050601f8311600181146115885760008415611576578287015190505b6115808582611502565b8655506115e8565b601f19841661159686611372565b60005b828110156115be57848901518255600182019150602085019450602081019050611599565b868310156115db57848901516115d7601f8916826114e4565b8355505b6001600288020188555050505b505050505050565b60006115fb82610d05565b6116058185611229565b9350611615818560208601610d21565b61161e81610d4b565b840191505092915050565b6000604082019050818103600083015261164381856115f0565b9050818103602083015261165781846115f0565b90509392505050565b7f4e487b7100000000000000000000000000000000000000000000000000000000600052601160045260246000fd5b600061169a82610c93565b91507fffffffffffffffffffffffffffffffffffffffffffffffffffffffffffffffff82036116cc576116cb611660565b5b600182019050919050565b7f4e487b7100000000000000000000000000000000000000000000000000000000600052603260045260246000fd5b61170f81610dd0565b82525050565b6000606082019050818103600083015261172f81866115f0565b9050818103602083015261174381856115f0565b90506117526040830184611706565b94935050505056fea2646970667358221220d7cb21613eb4c4fe403c72ca8c3fa000b67b744733de27ce305aab71b495a74464736f6c63430008140033",
  "linkReferences": {},
  "deployedLinkReferences": {}
}